{
  "_format": "hh-sol-artifact-1",
  "contractName": "EcoConnect",
  "sourceName": "contracts/EcoConnect.sol",
  "abi": [
    {
      "inputs": [
        {
          "internalType": "uint256",
          "name": "_pointPrice",
          "type": "uint256"
        },
        {
          "internalType": "uint256",
          "name": "_minimumRewardPoints",
          "type": "uint256"
        },
        {
          "internalType": "uint256",
          "name": "_minimumAgentPoints",
          "type": "uint256"
        }
      ],
      "stateMutability": "nonpayable",
      "type": "constructor"
    },
    {
      "anonymous": false,
      "inputs": [
        {
          "indexed": true,
          "internalType": "address",
          "name": "agent",
          "type": "address"
        }
      ],
      "name": "AgentRegistered",
      "type": "event"
    },
    {
      "anonymous": false,
      "inputs": [
        {
          "indexed": true,
          "internalType": "address",
          "name": "agent",
          "type": "address"
        },
        {
          "indexed": false,
          "internalType": "enum EcoConnect.AgentStatus",
          "name": "status",
          "type": "uint8"
        }
      ],
      "name": "AgentStatusUpdated",
      "type": "event"
    },
    {
      "anonymous": false,
      "inputs": [
        {
          "indexed": true,
          "internalType": "uint256",
          "name": "partnerId",
          "type": "uint256"
        },
        {
          "indexed": false,
          "internalType": "string",
          "name": "name",
          "type": "string"
        }
      ],
      "name": "PartnerAdded",
      "type": "event"
    },
    {
      "anonymous": false,
      "inputs": [
        {
          "indexed": true,
          "internalType": "address",
          "name": "user",
          "type": "address"
        },
        {
          "indexed": false,
          "internalType": "uint256",
          "name": "points",
          "type": "uint256"
        }
      ],
      "name": "PointsAwarded",
      "type": "event"
    },
    {
      "anonymous": false,
      "inputs": [
        {
          "indexed": true,
          "internalType": "address",
          "name": "agent",
          "type": "address"
        },
        {
          "indexed": false,
          "internalType": "uint256",
          "name": "points",
          "type": "uint256"
        }
      ],
      "name": "PointsPurchased",
      "type": "event"
    },
    {
      "anonymous": false,
      "inputs": [
        {
          "indexed": true,
          "internalType": "address",
          "name": "user",
          "type": "address"
        },
        {
          "indexed": true,
          "internalType": "uint256",
          "name": "partnerId",
          "type": "uint256"
        },
        {
          "indexed": false,
          "internalType": "uint256",
          "name": "points",
          "type": "uint256"
        }
      ],
      "name": "PointsRedeemed",
      "type": "event"
    },
    {
      "anonymous": false,
      "inputs": [
        {
          "indexed": true,
          "internalType": "address",
          "name": "user",
          "type": "address"
        }
      ],
      "name": "UserRegistered",
      "type": "event"
    },
    {
      "anonymous": false,
      "inputs": [
        {
          "indexed": true,
          "internalType": "uint256",
          "name": "reportId",
          "type": "uint256"
        },
        {
          "indexed": true,
          "internalType": "address",
          "name": "agent",
          "type": "address"
        },
        {
          "indexed": true,
          "internalType": "address",
          "name": "user",
          "type": "address"
        }
      ],
      "name": "WasteCollected",
      "type": "event"
    },
    {
      "anonymous": false,
      "inputs": [
        {
          "indexed": true,
          "internalType": "uint256",
          "name": "reportId",
          "type": "uint256"
        },
        {
          "indexed": true,
          "internalType": "address",
          "name": "user",
          "type": "address"
        },
        {
          "indexed": false,
          "internalType": "enum EcoConnect.WasteType",
          "name": "wasteType",
          "type": "uint8"
        },
        {
          "indexed": false,
          "internalType": "uint256",
          "name": "weight",
          "type": "uint256"
        }
      ],
      "name": "WasteReported",
      "type": "event"
    },
    {
      "inputs": [
        {
          "internalType": "string",
          "name": "_name",
          "type": "string"
        },
        {
          "internalType": "uint256",
          "name": "_discountRate",
          "type": "uint256"
        }
      ],
      "name": "addPartner",
      "outputs": [],
      "stateMutability": "nonpayable",
      "type": "function"
    },
    {
      "inputs": [],
      "name": "admin",
      "outputs": [
        {
          "internalType": "address",
          "name": "",
          "type": "address"
        }
      ],
      "stateMutability": "view",
      "type": "function"
    },
    {
      "inputs": [
        {
          "internalType": "address",
          "name": "",
          "type": "address"
        }
      ],
      "name": "agents",
      "outputs": [
        {
          "internalType": "bool",
          "name": "isRegistered",
          "type": "bool"
        },
        {
          "internalType": "enum EcoConnect.AgentStatus",
          "name": "status",
          "type": "uint8"
        },
        {
          "internalType": "uint256",
          "name": "pointBalance",
          "type": "uint256"
        },
        {
          "internalType": "uint256",
          "name": "totalCollections",
          "type": "uint256"
        },
        {
          "internalType": "uint256",
          "name": "reputation",
          "type": "uint256"
        },
        {
          "internalType": "address",
          "name": "walletAddress",
          "type": "address"
        }
      ],
      "stateMutability": "view",
      "type": "function"
    },
    {
      "inputs": [
        {
          "internalType": "address",
          "name": "_agent",
          "type": "address"
        }
      ],
      "name": "approveAgent",
      "outputs": [],
      "stateMutability": "nonpayable",
      "type": "function"
    },
    {
      "inputs": [
        {
          "internalType": "address",
          "name": "_user",
          "type": "address"
        }
      ],
      "name": "blacklistUser",
      "outputs": [],
      "stateMutability": "nonpayable",
      "type": "function"
    },
    {
      "inputs": [
        {
          "internalType": "uint256",
          "name": "_reportId",
          "type": "uint256"
        }
      ],
      "name": "collectWaste",
      "outputs": [],
      "stateMutability": "nonpayable",
      "type": "function"
    },
    {
      "inputs": [
        {
          "internalType": "address",
          "name": "_agent",
          "type": "address"
        }
      ],
      "name": "getAgentDetails",
      "outputs": [
        {
          "components": [
            {
              "internalType": "bool",
              "name": "isRegistered",
              "type": "bool"
            },
            {
              "internalType": "enum EcoConnect.AgentStatus",
              "name": "status",
              "type": "uint8"
            },
            {
              "internalType": "uint256",
              "name": "pointBalance",
              "type": "uint256"
            },
            {
              "internalType": "uint256",
              "name": "totalCollections",
              "type": "uint256"
            },
            {
              "internalType": "uint256",
              "name": "reputation",
              "type": "uint256"
            },
            {
              "internalType": "address",
              "name": "walletAddress",
              "type": "address"
            }
          ],
          "internalType": "struct EcoConnect.Agent",
          "name": "",
          "type": "tuple"
        }
      ],
      "stateMutability": "view",
      "type": "function"
    },
    {
      "inputs": [
        {
          "internalType": "uint256",
          "name": "_partnerId",
          "type": "uint256"
        }
      ],
      "name": "getPartnerDetails",
      "outputs": [
        {
          "components": [
            {
              "internalType": "string",
              "name": "name",
              "type": "string"
            },
            {
              "internalType": "uint256",
              "name": "discountRate",
              "type": "uint256"
            },
            {
              "internalType": "bool",
              "name": "isActive",
              "type": "bool"
            },
            {
              "internalType": "uint256",
              "name": "totalRedemptions",
              "type": "uint256"
            }
          ],
          "internalType": "struct EcoConnect.PartnerBusiness",
          "name": "",
          "type": "tuple"
        }
      ],
      "stateMutability": "view",
      "type": "function"
    },
    {
      "inputs": [
        {
          "internalType": "address",
          "name": "_user",
          "type": "address"
        }
      ],
      "name": "getUserDetails",
      "outputs": [
        {
          "components": [
            {
              "internalType": "bool",
              "name": "isRegistered",
              "type": "bool"
            },
            {
              "internalType": "enum EcoConnect.UserType",
              "name": "userType",
              "type": "uint8"
            },
            {
              "internalType": "uint256",
              "name": "pointBalance",
              "type": "uint256"
            },
            {
              "internalType": "uint256",
              "name": "totalWasteReported",
              "type": "uint256"
            },
            {
              "internalType": "uint256",
              "name": "rewardsEarned",
              "type": "uint256"
            },
            {
              "internalType": "bool",
              "name": "isBlacklisted",
              "type": "bool"
            }
          ],
          "internalType": "struct EcoConnect.User",
          "name": "",
          "type": "tuple"
        }
      ],
      "stateMutability": "view",
      "type": "function"
    },
    {
      "inputs": [
        {
          "internalType": "uint256",
          "name": "_reportId",
          "type": "uint256"
        }
      ],
      "name": "getWasteReport",
      "outputs": [
        {
          "components": [
            {
              "internalType": "uint256",
              "name": "id",
              "type": "uint256"
            },
            {
              "internalType": "address",
              "name": "user",
              "type": "address"
            },
            {
              "internalType": "enum EcoConnect.WasteType",
              "name": "wasteType",
              "type": "uint8"
            },
            {
              "internalType": "uint256",
              "name": "weight",
              "type": "uint256"
            },
            {
              "internalType": "string[]",
              "name": "imageHashes",
              "type": "string[]"
            },
            {
              "internalType": "bool",
              "name": "isCollected",
              "type": "bool"
            },
            {
              "internalType": "address",
              "name": "collectedBy",
              "type": "address"
            },
            {
              "internalType": "uint256",
              "name": "timestamp",
              "type": "uint256"
            },
            {
              "internalType": "bool",
              "name": "isVerified",
              "type": "bool"
            }
          ],
          "internalType": "struct EcoConnect.WasteReport",
          "name": "",
          "type": "tuple"
        }
      ],
      "stateMutability": "view",
      "type": "function"
    },
    {
      "inputs": [],
      "name": "minimumAgentPoints",
      "outputs": [
        {
          "internalType": "uint256",
          "name": "",
          "type": "uint256"
        }
      ],
      "stateMutability": "view",
      "type": "function"
    },
    {
      "inputs": [],
      "name": "minimumRewardPoints",
      "outputs": [
        {
          "internalType": "uint256",
          "name": "",
          "type": "uint256"
        }
      ],
      "stateMutability": "view",
      "type": "function"
    },
    {
      "inputs": [
        {
          "internalType": "uint256",
          "name": "",
          "type": "uint256"
        }
      ],
      "name": "partners",
      "outputs": [
        {
          "internalType": "string",
          "name": "name",
          "type": "string"
        },
        {
          "internalType": "uint256",
          "name": "discountRate",
          "type": "uint256"
        },
        {
          "internalType": "bool",
          "name": "isActive",
          "type": "bool"
        },
        {
          "internalType": "uint256",
          "name": "totalRedemptions",
          "type": "uint256"
        }
      ],
      "stateMutability": "view",
      "type": "function"
    },
    {
      "inputs": [],
      "name": "pointPrice",
      "outputs": [
        {
          "internalType": "uint256",
          "name": "",
          "type": "uint256"
        }
      ],
      "stateMutability": "view",
      "type": "function"
    },
    {
      "inputs": [],
      "name": "purchasePoints",
      "outputs": [],
      "stateMutability": "payable",
      "type": "function"
    },
    {
      "inputs": [
        {
          "internalType": "uint256",
          "name": "_partnerId",
          "type": "uint256"
        },
        {
          "internalType": "uint256",
          "name": "_points",
          "type": "uint256"
        }
      ],
      "name": "redeemPoints",
      "outputs": [],
      "stateMutability": "nonpayable",
      "type": "function"
    },
    {
      "inputs": [],
      "name": "registerAgent",
      "outputs": [],
      "stateMutability": "nonpayable",
      "type": "function"
    },
    {
      "inputs": [],
      "name": "registerUser",
      "outputs": [],
      "stateMutability": "nonpayable",
      "type": "function"
    },
    {
      "inputs": [
        {
          "internalType": "enum EcoConnect.WasteType",
          "name": "_wasteType",
          "type": "uint8"
        },
        {
          "internalType": "uint256",
          "name": "_weight",
          "type": "uint256"
        },
        {
          "internalType": "string[]",
          "name": "_imageHashes",
          "type": "string[]"
        }
      ],
      "name": "reportWaste",
      "outputs": [],
      "stateMutability": "nonpayable",
      "type": "function"
    },
    {
      "inputs": [
        {
          "internalType": "enum EcoConnect.WasteType",
          "name": "_type",
          "type": "uint8"
        },
        {
          "internalType": "uint256",
          "name": "_points",
          "type": "uint256"
        }
      ],
      "name": "setWasteTypePoints",
      "outputs": [],
      "stateMutability": "nonpayable",
      "type": "function"
    },
    {
      "inputs": [
        {
          "internalType": "uint256",
          "name": "_newPrice",
          "type": "uint256"
        }
      ],
      "name": "updatePointPrice",
      "outputs": [],
      "stateMutability": "nonpayable",
      "type": "function"
    },
    {
      "inputs": [
        {
          "internalType": "address",
          "name": "",
          "type": "address"
        }
      ],
      "name": "users",
      "outputs": [
        {
          "internalType": "bool",
          "name": "isRegistered",
          "type": "bool"
        },
        {
          "internalType": "enum EcoConnect.UserType",
          "name": "userType",
          "type": "uint8"
        },
        {
          "internalType": "uint256",
          "name": "pointBalance",
          "type": "uint256"
        },
        {
          "internalType": "uint256",
          "name": "totalWasteReported",
          "type": "uint256"
        },
        {
          "internalType": "uint256",
          "name": "rewardsEarned",
          "type": "uint256"
        },
        {
          "internalType": "bool",
          "name": "isBlacklisted",
          "type": "bool"
        }
      ],
      "stateMutability": "view",
      "type": "function"
    },
    {
      "inputs": [
        {
          "internalType": "uint256",
          "name": "",
          "type": "uint256"
        }
      ],
      "name": "wasteReports",
      "outputs": [
        {
          "internalType": "uint256",
          "name": "id",
          "type": "uint256"
        },
        {
          "internalType": "address",
          "name": "user",
          "type": "address"
        },
        {
          "internalType": "enum EcoConnect.WasteType",
          "name": "wasteType",
          "type": "uint8"
        },
        {
          "internalType": "uint256",
          "name": "weight",
          "type": "uint256"
        },
        {
          "internalType": "bool",
          "name": "isCollected",
          "type": "bool"
        },
        {
          "internalType": "address",
          "name": "collectedBy",
          "type": "address"
        },
        {
          "internalType": "uint256",
          "name": "timestamp",
          "type": "uint256"
        },
        {
          "internalType": "bool",
          "name": "isVerified",
          "type": "bool"
        }
      ],
      "stateMutability": "view",
      "type": "function"
    },
    {
      "inputs": [
        {
          "internalType": "enum EcoConnect.WasteType",
          "name": "",
          "type": "uint8"
        }
      ],
      "name": "wasteTypePoints",
      "outputs": [
        {
          "internalType": "uint256",
          "name": "",
          "type": "uint256"
        }
      ],
      "stateMutability": "view",
      "type": "function"
    }
  ],
  "bytecode": "0x608060405234801561001057600080fd5b50604051614387380380614387833981810160405281019061003291906100ca565b336000806101000a81548173ffffffffffffffffffffffffffffffffffffffff021916908373ffffffffffffffffffffffffffffffffffffffff16021790555082600181905550816002819055508060038190555050505061011d565b600080fd5b6000819050919050565b6100a781610094565b81146100b257600080fd5b50565b6000815190506100c48161009e565b92915050565b6000806000606084860312156100e3576100e261008f565b5b60006100f1868287016100b5565b9350506020610102868287016100b5565b9250506040610113868287016100b5565b9150509250925092565b61425b8061012c6000396000f3fe60806040526004361061014b5760003560e01c80639aa3514b116100b6578063c5df28821161006f578063c5df28821461047c578063cc3d967b146104a5578063d763bf7b146104e2578063f851a4401461051f578063fcbca4561461054a578063fd66091e146105735761014b565b80639aa3514b1461032e578063a87430ba1461036b578063b8c05671146103ad578063c2e70431146103ea578063c38b892814610413578063c3b49d041461043c5761014b565b806343dcc4c71161010857806343dcc4c7146102675780634c8b9738146102905780634d3820eb1461029a57806363c39370146102b15780639a027909146102dc5780639a3df92a146103055761014b565b80630cdd8982146101505780630d78e82d146101945780630ed8867c146101bf5780631258575a146101ea5780631e3fcab61461021357806335eb520814610250575b600080fd5b34801561015c57600080fd5b5061017760048036038101906101729190612a0e565b6105b5565b60405161018b989796959493929190612b1d565b60405180910390f35b3480156101a057600080fd5b506101a9610664565b6040516101b69190612b9b565b60405180910390f35b3480156101cb57600080fd5b506101d461066a565b6040516101e19190612b9b565b60405180910390f35b3480156101f657600080fd5b50610211600480360381019061020c9190612e07565b610670565b005b34801561021f57600080fd5b5061023a60048036038101906102359190612a0e565b610ab6565b6040516102479190612f76565b60405180910390f35b34801561025c57600080fd5b50610265610ba4565b005b34801561027357600080fd5b5061028e60048036038101906102899190612fc4565b610dcc565b005b61029861105c565b005b3480156102a657600080fd5b506102af6112af565b005b3480156102bd57600080fd5b506102c661149d565b6040516102d39190612b9b565b60405180910390f35b3480156102e857600080fd5b5061030360048036038101906102fe9190612a0e565b6114a3565b005b34801561031157600080fd5b5061032c60048036038101906103279190612ff1565b61153b565b005b34801561033a57600080fd5b506103556004803603810190610350919061304d565b6116a6565b6040516103629190612b9b565b60405180910390f35b34801561037757600080fd5b50610392600480360381019061038d9190612fc4565b6116be565b6040516103a4969594939291906130c2565b60405180910390f35b3480156103b957600080fd5b506103d460048036038101906103cf9190612fc4565b611721565b6040516103e191906131f5565b60405180910390f35b3480156103f657600080fd5b50610411600480360381019061040c9190613210565b611844565b005b34801561041f57600080fd5b5061043a60048036038101906104359190613250565b611b6a565b005b34801561044857600080fd5b50610463600480360381019061045e9190612a0e565b611c38565b60405161047394939291906132da565b60405180910390f35b34801561048857600080fd5b506104a3600480360381019061049e9190612a0e565b611cfd565b005b3480156104b157600080fd5b506104cc60048036038101906104c79190612fc4565b612289565b6040516104d991906133b0565b60405180910390f35b3480156104ee57600080fd5b5061050960048036038101906105049190612a0e565b612371565b6040516105169190613561565b60405180910390f35b34801561052b57600080fd5b506105346125b3565b6040516105419190613583565b60405180910390f35b34801561055657600080fd5b50610571600480360381019061056c9190612fc4565b6125d7565b005b34801561057f57600080fd5b5061059a60048036038101906105959190612fc4565b6126c3565b6040516105ac969594939291906135ad565b60405180910390f35b60066020528060005260406000206000915090508060000154908060010160009054906101000a900473ffffffffffffffffffffffffffffffffffffffff16908060010160149054906101000a900460ff16908060020154908060040160009054906101000a900460ff16908060040160019054906101000a900473ffffffffffffffffffffffffffffffffffffffff16908060050154908060060160009054906101000a900460ff16905088565b60035481565b60015481565b600460003373ffffffffffffffffffffffffffffffffffffffff1673ffffffffffffffffffffffffffffffffffffffff16815260200190815260200160002060000160009054906101000a900460ff166106ff576040517f08c379a00000000000000000000000000000000000000000000000000000000081526004016106f69061365a565b60405180910390fd5b600460003373ffffffffffffffffffffffffffffffffffffffff1673ffffffffffffffffffffffffffffffffffffffff16815260200190815260200160002060040160009054906101000a900460ff161561078f576040517f08c379a0000000000000000000000000000000000000000000000000000000008152600401610786906136c6565b60405180910390fd5b600082116107d2576040517f08c379a00000000000000000000000000000000000000000000000000000000081526004016107c990613732565b60405180910390fd5b6000815111610816576040517f08c379a000000000000000000000000000000000000000000000000000000000815260040161080d9061379e565b60405180910390fd5b60006009600081548092919061082b906137ed565b9190505590506040518061012001604052808281526020013373ffffffffffffffffffffffffffffffffffffffff16815260200185600281111561087257610871612a8b565b5b8152602001848152602001838152602001600015158152602001600073ffffffffffffffffffffffffffffffffffffffff16815260200142815260200160001515815250600660008381526020019081526020016000206000820151816000015560208201518160010160006101000a81548173ffffffffffffffffffffffffffffffffffffffff021916908373ffffffffffffffffffffffffffffffffffffffff16021790555060408201518160010160146101000a81548160ff0219169083600281111561094557610944612a8b565b5b0217905550606082015181600201556080820151816003019080519060200190610970929190612786565b5060a08201518160040160006101000a81548160ff02191690831515021790555060c08201518160040160016101000a81548173ffffffffffffffffffffffffffffffffffffffff021916908373ffffffffffffffffffffffffffffffffffffffff16021790555060e082015181600501556101008201518160060160006101000a81548160ff02191690831515021790555090505082600460003373ffffffffffffffffffffffffffffffffffffffff1673ffffffffffffffffffffffffffffffffffffffff1681526020019081526020016000206002016000828254610a589190613835565b925050819055503373ffffffffffffffffffffffffffffffffffffffff16817feb73dc13be705bb356e6530082b9175a680ceca65ee41757b356bde7ac41acfb8686604051610aa8929190613869565b60405180910390a350505050565b610abe6127df565b60076000838152602001908152602001600020604051806080016040529081600082018054610aec906138c1565b80601f0160208091040260200160405190810160405280929190818152602001828054610b18906138c1565b8015610b655780601f10610b3a57610100808354040283529160200191610b65565b820191906000526020600020905b815481529060010190602001808311610b4857829003601f168201915b50505050508152602001600182015481526020016002820160009054906101000a900460ff161515151581526020016003820154815250509050919050565b600560003373ffffffffffffffffffffffffffffffffffffffff1673ffffffffffffffffffffffffffffffffffffffff16815260200190815260200160002060000160009054906101000a900460ff1615610c34576040517f08c379a0000000000000000000000000000000000000000000000000000000008152600401610c2b9061393e565b60405180910390fd5b6040518060c0016040528060011515815260200160006002811115610c5c57610c5b612a8b565b5b81526020016000815260200160008152602001606481526020013373ffffffffffffffffffffffffffffffffffffffff16815250600560003373ffffffffffffffffffffffffffffffffffffffff1673ffffffffffffffffffffffffffffffffffffffff16815260200190815260200160002060008201518160000160006101000a81548160ff02191690831515021790555060208201518160000160016101000a81548160ff02191690836002811115610d1a57610d19612a8b565b5b021790555060408201518160010155606082015181600201556080820151816003015560a08201518160040160006101000a81548173ffffffffffffffffffffffffffffffffffffffff021916908373ffffffffffffffffffffffffffffffffffffffff1602179055509050503373ffffffffffffffffffffffffffffffffffffffff167f82d0829d9d481e4cb9913897f9b9c903271c4db68c7b3324071d2a7e3b2c5ff060405160405180910390a2565b60008054906101000a900473ffffffffffffffffffffffffffffffffffffffff1673ffffffffffffffffffffffffffffffffffffffff163373ffffffffffffffffffffffffffffffffffffffff1614610e5a576040517f08c379a0000000000000000000000000000000000000000000000000000000008152600401610e51906139d0565b60405180910390fd5b600560008273ffffffffffffffffffffffffffffffffffffffff1673ffffffffffffffffffffffffffffffffffffffff16815260200190815260200160002060000160009054906101000a900460ff16610ee9576040517f08c379a0000000000000000000000000000000000000000000000000000000008152600401610ee090613a3c565b60405180910390fd5b60006002811115610efd57610efc612a8b565b5b600560008373ffffffffffffffffffffffffffffffffffffffff1673ffffffffffffffffffffffffffffffffffffffff16815260200190815260200160002060000160019054906101000a900460ff166002811115610f5f57610f5e612a8b565b5b14610f9f576040517f08c379a0000000000000000000000000000000000000000000000000000000008152600401610f9690613aa8565b60405180910390fd5b6001600560008373ffffffffffffffffffffffffffffffffffffffff1673ffffffffffffffffffffffffffffffffffffffff16815260200190815260200160002060000160016101000a81548160ff0219169083600281111561100557611004612a8b565b5b02179055508073ffffffffffffffffffffffffffffffffffffffff167f3e6af4de7e4ac852316386b4121ebdbc2a21fc4d711aaab2b539e5103941178760016040516110519190613ac8565b60405180910390a250565b600560003373ffffffffffffffffffffffffffffffffffffffff1673ffffffffffffffffffffffffffffffffffffffff16815260200190815260200160002060000160009054906101000a900460ff166110eb576040517f08c379a00000000000000000000000000000000000000000000000000000000081526004016110e290613a3c565b60405180910390fd5b600160028111156110ff576110fe612a8b565b5b600560003373ffffffffffffffffffffffffffffffffffffffff1673ffffffffffffffffffffffffffffffffffffffff16815260200190815260200160002060000160019054906101000a900460ff16600281111561116157611160612a8b565b5b146111a1576040517f08c379a000000000000000000000000000000000000000000000000000000000815260040161119890613b2f565b60405180910390fd5b6003546001546111b19190613b4f565b3410156111f3576040517f08c379a00000000000000000000000000000000000000000000000000000000081526004016111ea90613bdd565b60405180910390fd5b6000600154346112039190613c2c565b905080600560003373ffffffffffffffffffffffffffffffffffffffff1673ffffffffffffffffffffffffffffffffffffffff16815260200190815260200160002060010160008282546112579190613835565b925050819055503373ffffffffffffffffffffffffffffffffffffffff167f4188bb0074eb5be3d6b8089e8faaa457e592aab04dd8d5fc19d7358791c4eee4826040516112a49190612b9b565b60405180910390a250565b600460003373ffffffffffffffffffffffffffffffffffffffff1673ffffffffffffffffffffffffffffffffffffffff16815260200190815260200160002060000160009054906101000a900460ff161561133f576040517f08c379a000000000000000000000000000000000000000000000000000000000815260040161133690613ca9565b60405180910390fd5b6040518060c001604052806001151581526020016000600181111561136757611366612a8b565b5b815260200160008152602001600081526020016000815260200160001515815250600460003373ffffffffffffffffffffffffffffffffffffffff1673ffffffffffffffffffffffffffffffffffffffff16815260200190815260200160002060008201518160000160006101000a81548160ff02191690831515021790555060208201518160000160016101000a81548160ff0219169083600181111561141257611411612a8b565b5b021790555060408201518160010155606082015181600201556080820151816003015560a08201518160040160006101000a81548160ff0219169083151502179055509050503373ffffffffffffffffffffffffffffffffffffffff167f54db7a5cb4735e1aac1f53db512d3390390bb6637bd30ad4bf9fc98667d9b9b960405160405180910390a2565b60025481565b60008054906101000a900473ffffffffffffffffffffffffffffffffffffffff1673ffffffffffffffffffffffffffffffffffffffff163373ffffffffffffffffffffffffffffffffffffffff1614611531576040517f08c379a0000000000000000000000000000000000000000000000000000000008152600401611528906139d0565b60405180910390fd5b8060018190555050565b60008054906101000a900473ffffffffffffffffffffffffffffffffffffffff1673ffffffffffffffffffffffffffffffffffffffff163373ffffffffffffffffffffffffffffffffffffffff16146115c9576040517f08c379a00000000000000000000000000000000000000000000000000000000081526004016115c0906139d0565b60405180910390fd5b6000600a60008154809291906115de906137ed565b919050559050604051806080016040528084815260200183815260200160011515815260200160008152506007600083815260200190815260200160002060008201518160000190816116319190613e75565b506020820151816001015560408201518160020160006101000a81548160ff02191690831515021790555060608201518160030155905050807f6b5d098d49c45279cf1afc02eec71018b4e172ec66e1834863c5d62febaa50b7846040516116999190613f47565b60405180910390a2505050565b60086020528060005260406000206000915090505481565b60046020528060005260406000206000915090508060000160009054906101000a900460ff16908060000160019054906101000a900460ff16908060010154908060020154908060030154908060040160009054906101000a900460ff16905086565b611729612809565b600560008373ffffffffffffffffffffffffffffffffffffffff1673ffffffffffffffffffffffffffffffffffffffff1681526020019081526020016000206040518060c00160405290816000820160009054906101000a900460ff161515151581526020016000820160019054906101000a900460ff1660028111156117b3576117b2612a8b565b5b60028111156117c5576117c4612a8b565b5b81526020016001820154815260200160028201548152602001600382015481526020016004820160009054906101000a900473ffffffffffffffffffffffffffffffffffffffff1673ffffffffffffffffffffffffffffffffffffffff1673ffffffffffffffffffffffffffffffffffffffff16815250509050919050565b600460003373ffffffffffffffffffffffffffffffffffffffff1673ffffffffffffffffffffffffffffffffffffffff16815260200190815260200160002060000160009054906101000a900460ff166118d3576040517f08c379a00000000000000000000000000000000000000000000000000000000081526004016118ca9061365a565b60405180910390fd5b600460003373ffffffffffffffffffffffffffffffffffffffff1673ffffffffffffffffffffffffffffffffffffffff16815260200190815260200160002060040160009054906101000a900460ff1615611963576040517f08c379a000000000000000000000000000000000000000000000000000000000815260040161195a906136c6565b60405180910390fd5b6007600083815260200190815260200160002060020160009054906101000a900460ff166119c6576040517f08c379a00000000000000000000000000000000000000000000000000000000081526004016119bd90613fb5565b60405180910390fd5b80600460003373ffffffffffffffffffffffffffffffffffffffff1673ffffffffffffffffffffffffffffffffffffffff168152602001908152602001600020600101541015611a4b576040517f08c379a0000000000000000000000000000000000000000000000000000000008152600401611a4290614021565b60405180910390fd5b600254811015611a90576040517f08c379a0000000000000000000000000000000000000000000000000000000008152600401611a879061408d565b60405180910390fd5b80600460003373ffffffffffffffffffffffffffffffffffffffff1673ffffffffffffffffffffffffffffffffffffffff1681526020019081526020016000206001016000828254611ae291906140ad565b925050819055506001600760008481526020019081526020016000206003016000828254611b109190613835565b92505081905550813373ffffffffffffffffffffffffffffffffffffffff167f8489cc43a42dbf9d33259b91b6c919c19644ac3b135272570f33f989637a110283604051611b5e9190612b9b565b60405180910390a35050565b60008054906101000a900473ffffffffffffffffffffffffffffffffffffffff1673ffffffffffffffffffffffffffffffffffffffff163373ffffffffffffffffffffffffffffffffffffffff1614611bf8576040517f08c379a0000000000000000000000000000000000000000000000000000000008152600401611bef906139d0565b60405180910390fd5b8060086000846002811115611c1057611c0f612a8b565b5b6002811115611c2257611c21612a8b565b5b8152602001908152602001600020819055505050565b6007602052806000526040600020600091509050806000018054611c5b906138c1565b80601f0160208091040260200160405190810160405280929190818152602001828054611c87906138c1565b8015611cd45780601f10611ca957610100808354040283529160200191611cd4565b820191906000526020600020905b815481529060010190602001808311611cb757829003601f168201915b5050505050908060010154908060020160009054906101000a900460ff16908060030154905084565b600560003373ffffffffffffffffffffffffffffffffffffffff1673ffffffffffffffffffffffffffffffffffffffff16815260200190815260200160002060000160009054906101000a900460ff16611d8c576040517f08c379a0000000000000000000000000000000000000000000000000000000008152600401611d8390613a3c565b60405180910390fd5b60016002811115611da057611d9f612a8b565b5b600560003373ffffffffffffffffffffffffffffffffffffffff1673ffffffffffffffffffffffffffffffffffffffff16815260200190815260200160002060000160019054906101000a900460ff166002811115611e0257611e01612a8b565b5b14611e42576040517f08c379a0000000000000000000000000000000000000000000000000000000008152600401611e3990613b2f565b60405180910390fd5b60006006600083815260200190815260200160002090508060040160009054906101000a900460ff1615611eab576040517f08c379a0000000000000000000000000000000000000000000000000000000008152600401611ea29061412d565b60405180910390fd5b600073ffffffffffffffffffffffffffffffffffffffff168160010160009054906101000a900473ffffffffffffffffffffffffffffffffffffffff1673ffffffffffffffffffffffffffffffffffffffff1603611f3e576040517f08c379a0000000000000000000000000000000000000000000000000000000008152600401611f3590614199565b60405180910390fd5b6000611f5f8260010160149054906101000a900460ff168360020154612739565b905080600560003373ffffffffffffffffffffffffffffffffffffffff1673ffffffffffffffffffffffffffffffffffffffff168152602001908152602001600020600101541015611fe6576040517f08c379a0000000000000000000000000000000000000000000000000000000008152600401611fdd90614205565b60405180910390fd5b60018260040160006101000a81548160ff021916908315150217905550338260040160016101000a81548173ffffffffffffffffffffffffffffffffffffffff021916908373ffffffffffffffffffffffffffffffffffffffff16021790555060018260060160006101000a81548160ff02191690831515021790555080600560003373ffffffffffffffffffffffffffffffffffffffff1673ffffffffffffffffffffffffffffffffffffffff16815260200190815260200160002060010160008282546120b591906140ad565b925050819055506001600560003373ffffffffffffffffffffffffffffffffffffffff1673ffffffffffffffffffffffffffffffffffffffff168152602001908152602001600020600201600082825461210f9190613835565b9250508190555080600460008460010160009054906101000a900473ffffffffffffffffffffffffffffffffffffffff1673ffffffffffffffffffffffffffffffffffffffff1673ffffffffffffffffffffffffffffffffffffffff168152602001908152602001600020600101600082825461218c9190613835565b925050819055508160010160009054906101000a900473ffffffffffffffffffffffffffffffffffffffff1673ffffffffffffffffffffffffffffffffffffffff163373ffffffffffffffffffffffffffffffffffffffff16847fe9fb4e123f72653a2da74d9424cfd658a7e6d57d72663a5c9c4c938dba2e6f1460405160405180910390a48160010160009054906101000a900473ffffffffffffffffffffffffffffffffffffffff1673ffffffffffffffffffffffffffffffffffffffff167f900825d4808e50002c1a3614c809eb06d2d7142338f0dec06ed9a4057c8a8c998260405161227c9190612b9b565b60405180910390a2505050565b612291612869565b600460008373ffffffffffffffffffffffffffffffffffffffff1673ffffffffffffffffffffffffffffffffffffffff1681526020019081526020016000206040518060c00160405290816000820160009054906101000a900460ff161515151581526020016000820160019054906101000a900460ff16600181111561231b5761231a612a8b565b5b600181111561232d5761232c612a8b565b5b81526020016001820154815260200160028201548152602001600382015481526020016004820160009054906101000a900460ff1615151515815250509050919050565b6123796128b5565b6006600083815260200190815260200160002060405180610120016040529081600082015481526020016001820160009054906101000a900473ffffffffffffffffffffffffffffffffffffffff1673ffffffffffffffffffffffffffffffffffffffff1673ffffffffffffffffffffffffffffffffffffffff1681526020016001820160149054906101000a900460ff16600281111561241d5761241c612a8b565b5b600281111561242f5761242e612a8b565b5b81526020016002820154815260200160038201805480602002602001604051908101604052809291908181526020016000905b8282101561250e578382906000526020600020018054612481906138c1565b80601f01602080910402602001604051908101604052809291908181526020018280546124ad906138c1565b80156124fa5780601f106124cf576101008083540402835291602001916124fa565b820191906000526020600020905b8154815290600101906020018083116124dd57829003601f168201915b505050505081526020019060010190612462565b5050505081526020016004820160009054906101000a900460ff161515151581526020016004820160019054906101000a900473ffffffffffffffffffffffffffffffffffffffff1673ffffffffffffffffffffffffffffffffffffffff1673ffffffffffffffffffffffffffffffffffffffff168152602001600582015481526020016006820160009054906101000a900460ff1615151515815250509050919050565b60008054906101000a900473ffffffffffffffffffffffffffffffffffffffff1681565b60008054906101000a900473ffffffffffffffffffffffffffffffffffffffff1673ffffffffffffffffffffffffffffffffffffffff163373ffffffffffffffffffffffffffffffffffffffff1614612665576040517f08c379a000000000000000000000000000000000000000000000000000000000815260040161265c906139d0565b60405180910390fd5b6001600460008373ffffffffffffffffffffffffffffffffffffffff1673ffffffffffffffffffffffffffffffffffffffff16815260200190815260200160002060040160006101000a81548160ff02191690831515021790555050565b60056020528060005260406000206000915090508060000160009054906101000a900460ff16908060000160019054906101000a900460ff16908060010154908060020154908060030154908060040160009054906101000a900473ffffffffffffffffffffffffffffffffffffffff16905086565b6000816008600085600281111561275357612752612a8b565b5b600281111561276557612764612a8b565b5b81526020019081526020016000205461277e9190613b4f565b905092915050565b8280548282559060005260206000209081019282156127ce579160200282015b828111156127cd5782518290816127bd9190613e75565b50916020019190600101906127a6565b5b5090506127db9190612943565b5090565b60405180608001604052806060815260200160008152602001600015158152602001600081525090565b6040518060c001604052806000151581526020016000600281111561283157612830612a8b565b5b8152602001600081526020016000815260200160008152602001600073ffffffffffffffffffffffffffffffffffffffff1681525090565b6040518060c001604052806000151581526020016000600181111561289157612890612a8b565b5b81526020016000815260200160008152602001600081526020016000151581525090565b60405180610120016040528060008152602001600073ffffffffffffffffffffffffffffffffffffffff168152602001600060028111156128f9576128f8612a8b565b5b81526020016000815260200160608152602001600015158152602001600073ffffffffffffffffffffffffffffffffffffffff168152602001600081526020016000151581525090565b5b80821115612963576000818161295a9190612967565b50600101612944565b5090565b508054612973906138c1565b6000825580601f1061298557506129a4565b601f0160209004906000526020600020908101906129a391906129a7565b5b50565b5b808211156129c05760008160009055506001016129a8565b5090565b6000604051905090565b600080fd5b600080fd5b6000819050919050565b6129eb816129d8565b81146129f657600080fd5b50565b600081359050612a08816129e2565b92915050565b600060208284031215612a2457612a236129ce565b5b6000612a32848285016129f9565b91505092915050565b612a44816129d8565b82525050565b600073ffffffffffffffffffffffffffffffffffffffff82169050919050565b6000612a7582612a4a565b9050919050565b612a8581612a6a565b82525050565b7f4e487b7100000000000000000000000000000000000000000000000000000000600052602160045260246000fd5b60038110612acb57612aca612a8b565b5b50565b6000819050612adc82612aba565b919050565b6000612aec82612ace565b9050919050565b612afc81612ae1565b82525050565b60008115159050919050565b612b1781612b02565b82525050565b600061010082019050612b33600083018b612a3b565b612b40602083018a612a7c565b612b4d6040830189612af3565b612b5a6060830188612a3b565b612b676080830187612b0e565b612b7460a0830186612a7c565b612b8160c0830185612a3b565b612b8e60e0830184612b0e565b9998505050505050505050565b6000602082019050612bb06000830184612a3b565b92915050565b60038110612bc357600080fd5b50565b600081359050612bd581612bb6565b92915050565b600080fd5b6000601f19601f8301169050919050565b7f4e487b7100000000000000000000000000000000000000000000000000000000600052604160045260246000fd5b612c2982612be0565b810181811067ffffffffffffffff82111715612c4857612c47612bf1565b5b80604052505050565b6000612c5b6129c4565b9050612c678282612c20565b919050565b600067ffffffffffffffff821115612c8757612c86612bf1565b5b602082029050602081019050919050565b600080fd5b600080fd5b600067ffffffffffffffff821115612cbd57612cbc612bf1565b5b612cc682612be0565b9050602081019050919050565b82818337600083830152505050565b6000612cf5612cf084612ca2565b612c51565b905082815260208101848484011115612d1157612d10612c9d565b5b612d1c848285612cd3565b509392505050565b600082601f830112612d3957612d38612bdb565b5b8135612d49848260208601612ce2565b91505092915050565b6000612d65612d6084612c6c565b612c51565b90508083825260208201905060208402830185811115612d8857612d87612c98565b5b835b81811015612dcf57803567ffffffffffffffff811115612dad57612dac612bdb565b5b808601612dba8982612d24565b85526020850194505050602081019050612d8a565b5050509392505050565b600082601f830112612dee57612ded612bdb565b5b8135612dfe848260208601612d52565b91505092915050565b600080600060608486031215612e2057612e1f6129ce565b5b6000612e2e86828701612bc6565b9350506020612e3f868287016129f9565b925050604084013567ffffffffffffffff811115612e6057612e5f6129d3565b5b612e6c86828701612dd9565b9150509250925092565b600081519050919050565b600082825260208201905092915050565b60005b83811015612eb0578082015181840152602081019050612e95565b60008484015250505050565b6000612ec782612e76565b612ed18185612e81565b9350612ee1818560208601612e92565b612eea81612be0565b840191505092915050565b612efe816129d8565b82525050565b612f0d81612b02565b82525050565b60006080830160008301518482036000860152612f308282612ebc565b9150506020830151612f456020860182612ef5565b506040830151612f586040860182612f04565b506060830151612f6b6060860182612ef5565b508091505092915050565b60006020820190508181036000830152612f908184612f13565b905092915050565b612fa181612a6a565b8114612fac57600080fd5b50565b600081359050612fbe81612f98565b92915050565b600060208284031215612fda57612fd96129ce565b5b6000612fe884828501612faf565b91505092915050565b60008060408385031215613008576130076129ce565b5b600083013567ffffffffffffffff811115613026576130256129d3565b5b61303285828601612d24565b9250506020613043858286016129f9565b9150509250929050565b600060208284031215613063576130626129ce565b5b600061307184828501612bc6565b91505092915050565b6002811061308b5761308a612a8b565b5b50565b600081905061309c8261307a565b919050565b60006130ac8261308e565b9050919050565b6130bc816130a1565b82525050565b600060c0820190506130d76000830189612b0e565b6130e460208301886130b3565b6130f16040830187612a3b565b6130fe6060830186612a3b565b61310b6080830185612a3b565b61311860a0830184612b0e565b979650505050505050565b6003811061313457613133612a8b565b5b50565b600081905061314582613123565b919050565b600061315582613137565b9050919050565b6131658161314a565b82525050565b61317481612a6a565b82525050565b60c0820160008201516131906000850182612f04565b5060208201516131a3602085018261315c565b5060408201516131b66040850182612ef5565b5060608201516131c96060850182612ef5565b5060808201516131dc6080850182612ef5565b5060a08201516131ef60a085018261316b565b50505050565b600060c08201905061320a600083018461317a565b92915050565b60008060408385031215613227576132266129ce565b5b6000613235858286016129f9565b9250506020613246858286016129f9565b9150509250929050565b60008060408385031215613267576132666129ce565b5b600061327585828601612bc6565b9250506020613286858286016129f9565b9150509250929050565b600082825260208201905092915050565b60006132ac82612e76565b6132b68185613290565b93506132c6818560208601612e92565b6132cf81612be0565b840191505092915050565b600060808201905081810360008301526132f481876132a1565b90506133036020830186612a3b565b6133106040830185612b0e565b61331d6060830184612a3b565b95945050505050565b61332f816130a1565b82525050565b60c08201600082015161334b6000850182612f04565b50602082015161335e6020850182613326565b5060408201516133716040850182612ef5565b5060608201516133846060850182612ef5565b5060808201516133976080850182612ef5565b5060a08201516133aa60a0850182612f04565b50505050565b600060c0820190506133c56000830184613335565b92915050565b6133d481612ae1565b82525050565b600081519050919050565b600082825260208201905092915050565b6000819050602082019050919050565b60006134128383612ebc565b905092915050565b6000602082019050919050565b6000613432826133da565b61343c81856133e5565b93508360208202850161344e856133f6565b8060005b8581101561348a578484038952815161346b8582613406565b94506134768361341a565b925060208a01995050600181019050613452565b50829750879550505050505092915050565b6000610120830160008301516134b56000860182612ef5565b5060208301516134c8602086018261316b565b5060408301516134db60408601826133cb565b5060608301516134ee6060860182612ef5565b50608083015184820360808601526135068282613427565b91505060a083015161351b60a0860182612f04565b5060c083015161352e60c086018261316b565b5060e083015161354160e0860182612ef5565b50610100830151613556610100860182612f04565b508091505092915050565b6000602082019050818103600083015261357b818461349c565b905092915050565b60006020820190506135986000830184612a7c565b92915050565b6135a78161314a565b82525050565b600060c0820190506135c26000830189612b0e565b6135cf602083018861359e565b6135dc6040830187612a3b565b6135e96060830186612a3b565b6135f66080830185612a3b565b61360360a0830184612a7c565b979650505050505050565b7f55736572206e6f74207265676973746572656400000000000000000000000000600082015250565b6000613644601383613290565b915061364f8261360e565b602082019050919050565b6000602082019050818103600083015261367381613637565b9050919050565b7f5573657220697320626c61636b6c697374656400000000000000000000000000600082015250565b60006136b0601383613290565b91506136bb8261367a565b602082019050919050565b600060208201905081810360008301526136df816136a3565b9050919050565b7f576569676874206d7573742062652067726561746572207468616e2030000000600082015250565b600061371c601d83613290565b9150613727826136e6565b602082019050919050565b6000602082019050818103600083015261374b8161370f565b9050919050565b7f4d7573742070726f76696465206174206c65617374206f6e6520696d61676500600082015250565b6000613788601f83613290565b915061379382613752565b602082019050919050565b600060208201905081810360008301526137b78161377b565b9050919050565b7f4e487b7100000000000000000000000000000000000000000000000000000000600052601160045260246000fd5b60006137f8826129d8565b91507fffffffffffffffffffffffffffffffffffffffffffffffffffffffffffffffff820361382a576138296137be565b5b600182019050919050565b6000613840826129d8565b915061384b836129d8565b9250828201905080821115613863576138626137be565b5b92915050565b600060408201905061387e6000830185612af3565b61388b6020830184612a3b565b9392505050565b7f4e487b7100000000000000000000000000000000000000000000000000000000600052602260045260246000fd5b600060028204905060018216806138d957607f821691505b6020821081036138ec576138eb613892565b5b50919050565b7f4167656e7420616c726561647920726567697374657265640000000000000000600082015250565b6000613928601883613290565b9150613933826138f2565b602082019050919050565b600060208201905081810360008301526139578161391b565b9050919050565b7f4f6e6c792061646d696e2063616e2063616c6c20746869732066756e6374696f60008201527f6e00000000000000000000000000000000000000000000000000000000000000602082015250565b60006139ba602183613290565b91506139c58261395e565b604082019050919050565b600060208201905081810360008301526139e9816139ad565b9050919050565b7f4167656e74206e6f742072656769737465726564000000000000000000000000600082015250565b6000613a26601483613290565b9150613a31826139f0565b602082019050919050565b60006020820190508181036000830152613a5581613a19565b9050919050565b7f4167656e74206e6f742070656e64696e67000000000000000000000000000000600082015250565b6000613a92601183613290565b9150613a9d82613a5c565b602082019050919050565b60006020820190508181036000830152613ac181613a85565b9050919050565b6000602082019050613add600083018461359e565b92915050565b7f4167656e74206e6f7420617070726f7665640000000000000000000000000000600082015250565b6000613b19601283613290565b9150613b2482613ae3565b602082019050919050565b60006020820190508181036000830152613b4881613b0c565b9050919050565b6000613b5a826129d8565b9150613b65836129d8565b9250828202613b73816129d8565b91508282048414831517613b8a57613b896137be565b5b5092915050565b7f496e73756666696369656e74207061796d656e74000000000000000000000000600082015250565b6000613bc7601483613290565b9150613bd282613b91565b602082019050919050565b60006020820190508181036000830152613bf681613bba565b9050919050565b7f4e487b7100000000000000000000000000000000000000000000000000000000600052601260045260246000fd5b6000613c37826129d8565b9150613c42836129d8565b925082613c5257613c51613bfd565b5b828204905092915050565b7f5573657220616c72656164792072656769737465726564000000000000000000600082015250565b6000613c93601783613290565b9150613c9e82613c5d565b602082019050919050565b60006020820190508181036000830152613cc281613c86565b9050919050565b60008190508160005260206000209050919050565b60006020601f8301049050919050565b600082821b905092915050565b600060088302613d2b7fffffffffffffffffffffffffffffffffffffffffffffffffffffffffffffffff82613cee565b613d358683613cee565b95508019841693508086168417925050509392505050565b6000819050919050565b6000613d72613d6d613d68846129d8565b613d4d565b6129d8565b9050919050565b6000819050919050565b613d8c83613d57565b613da0613d9882613d79565b848454613cfb565b825550505050565b600090565b613db5613da8565b613dc0818484613d83565b505050565b5b81811015613de457613dd9600082613dad565b600181019050613dc6565b5050565b601f821115613e2957613dfa81613cc9565b613e0384613cde565b81016020851015613e12578190505b613e26613e1e85613cde565b830182613dc5565b50505b505050565b600082821c905092915050565b6000613e4c60001984600802613e2e565b1980831691505092915050565b6000613e658383613e3b565b9150826002028217905092915050565b613e7e82612e76565b67ffffffffffffffff811115613e9757613e96612bf1565b5b613ea182546138c1565b613eac828285613de8565b600060209050601f831160018114613edf5760008415613ecd578287015190505b613ed78582613e59565b865550613f3f565b601f198416613eed86613cc9565b60005b82811015613f1557848901518255600182019150602085019450602081019050613ef0565b86831015613f325784890151613f2e601f891682613e3b565b8355505b6001600288020188555050505b505050505050565b60006020820190508181036000830152613f6181846132a1565b905092915050565b7f506172746e6572206e6f74206163746976650000000000000000000000000000600082015250565b6000613f9f601283613290565b9150613faa82613f69565b602082019050919050565b60006020820190508181036000830152613fce81613f92565b9050919050565b7f496e73756666696369656e7420706f696e747300000000000000000000000000600082015250565b600061400b601383613290565b915061401682613fd5565b602082019050919050565b6000602082019050818103600083015261403a81613ffe565b9050919050565b7f506f696e74732062656c6f77206d696e696d756d20726571756972656d656e74600082015250565b6000614077602083613290565b915061408282614041565b602082019050919050565b600060208201905081810360008301526140a68161406a565b9050919050565b60006140b8826129d8565b91506140c3836129d8565b92508282039050818111156140db576140da6137be565b5b92915050565b7f576173746520616c726561647920636f6c6c6563746564000000000000000000600082015250565b6000614117601783613290565b9150614122826140e1565b602082019050919050565b600060208201905081810360008301526141468161410a565b9050919050565b7f496e76616c6964207265706f7274000000000000000000000000000000000000600082015250565b6000614183600e83613290565b915061418e8261414d565b602082019050919050565b600060208201905081810360008301526141b281614176565b9050919050565b7f496e73756666696369656e74206167656e7420706f696e747300000000000000600082015250565b60006141ef601983613290565b91506141fa826141b9565b602082019050919050565b6000602082019050818103600083015261421e816141e2565b905091905056fea26469706673582212202c1df6b1bdf5492f2a9cbe00f111bfbc55b68a1c8d314fb14ee50811d55484a964736f6c634300081c0033",
  "linkReferences": {},
  "deployedLinkReferences": {}
}